{
  "contractName": "iot",
  "abi": [
    {
      "constant": false,
      "inputs": [
        {
          "internalType": "uint256",
          "name": "p",
          "type": "uint256"
        },
        {
          "internalType": "uint256",
          "name": "w",
          "type": "uint256"
        }
      ],
      "name": "addFeed",
      "outputs": [],
      "payable": false,
      "stateMutability": "nonpayable",
      "type": "function"
    },
    {
      "constant": true,
      "inputs": [],
      "name": "viewFeed",
      "outputs": [
        {
          "internalType": "uint256[]",
          "name": "",
          "type": "uint256[]"
        },
        {
          "internalType": "uint256[]",
          "name": "",
          "type": "uint256[]"
        }
      ],
      "payable": false,
      "stateMutability": "view",
      "type": "function"
    }
  ],
  "bytecode": "0x608060405234801561001057600080fd5b5061025e806100206000396000f3fe608060405234801561001057600080fd5b50600436106100365760003560e01c8063c03cf7ef1461003b578063e8d2a16a14610073575b600080fd5b6100716004803603604081101561005157600080fd5b81019080803590602001909291908035906020019092919050505061011a565b005b61007b610176565b604051808060200180602001838103835285818151815260200191508051906020019060200280838360005b838110156100c25780820151818401526020810190506100a7565b50505050905001838103825284818151815260200191508051906020019060200280838360005b838110156101045780820151818401526020810190506100e9565b5050505090500194505050505060405180910390f35b600082908060018154018082558091505090600182039060005260206000200160009091929091909150555060018190806001815401808255809150509060018203906000526020600020016000909192909190915055505050565b60608060006001818054806020026020016040519081016040528092919081815260200182805480156101c857602002820191906000526020600020905b8154815260200190600101908083116101b4575b505050505091508080548060200260200160405190810160405280929190818152602001828054801561021a57602002820191906000526020600020905b815481526020019060010190808311610206575b5050505050905091509150909156fea265627a7a72315820c1599979df2969f24a5833a1b5c662599f6f38f5cb5e807232e56e1480f2306164736f6c63430005100032",
  "source": "// SPDX-License-Identifier: MIT\npragma solidity >=0.4.22 <0.9.0;\n\ncontract iot {\n  uint[] pressure;\n  uint[] wheelNo;\n\n  function addFeed(uint p, uint w) public {\n    pressure.push(p);\n    wheelNo.push(w);\n  }\n\n  function viewFeed() public view returns(uint[] memory, uint[] memory) {\n    return (pressure,wheelNo);\n  }\n}\n",
  "sourcePath": "/Users/maddysravs/iot-event-identifier-aws-blockchain/contracts/iot.sol",
  "compiler": {
    "name": "solc",
    "version": "0.5.16+commit.9c3226ce.Emscripten.clang"
  },
  "schemaVersion": "3.4.7",
  "updatedAt": "2022-06-27T08:51:56.322Z",
  "networkType": "ethereum",
  "devdoc": {
    "methods": {}
  },
  "userdoc": {
    "methods": {}
  }
}